{
  "transactions": [
    {
      "hash": "0x10d423727bdc38def1c02f4f37e1b77db3dd172d95d342bf0c0e4e1fdbd62739",
      "transactionType": "CALL",
      "contractName": null,
      "contractAddress": "0xb6ddaf80fcadf0a1a2cf5be9f2b75cde825cd698",
      "function": "openPosition(string,uint8,uint8)",
      "arguments": [
        "USA",
        "0",
        "2"
      ],
      "transaction": {
        "from": "0x250ab09c7dec1d2d6c09c080160bd7ff47689282",
        "to": "0xb6ddaf80fcadf0a1a2cf5be9f2b75cde825cd698",
        "gas": "0x44c61",
        "value": "0x2386f26fc10000",
        "input": "0x5885d99f00000000000000000000000000000000000000000000000000000000000000600000000000000000000000000000000000000000000000000000000000000000000000000000000000000000000000000000000000000000000000000000000200000000000000000000000000000000000000000000000000000000000000035553410000000000000000000000000000000000000000000000000000000000",
        "nonce": "0x6b",
        "chainId": "0x14a34"
      },
      "additionalContracts": [],
      "isFixedGasLimit": false
    },
    {
      "hash": "0xbc373dac3d37dc6a8b9d76a04d6b5cf97fa97dd0ec73085634c53706e42b4218",
      "transactionType": "CALL",
      "contractName": null,
      "contractAddress": "0xb6ddaf80fcadf0a1a2cf5be9f2b75cde825cd698",
      "function": "closePosition(address)",
      "arguments": [
        "0x250ab09C7dEc1d2d6c09c080160bD7fF47689282"
      ],
      "transaction": {
        "from": "0x250ab09c7dec1d2d6c09c080160bd7ff47689282",
        "to": "0xb6ddaf80fcadf0a1a2cf5be9f2b75cde825cd698",
        "gas": "0x11096",
        "value": "0x0",
        "input": "0x2f86e2dd000000000000000000000000250ab09c7dec1d2d6c09c080160bd7ff47689282",
        "nonce": "0x6c",
        "chainId": "0x14a34"
      },
      "additionalContracts": [],
      "isFixedGasLimit": false
    }
  ],
  "receipts": [
    {
      "status": "0x1",
      "cumulativeGasUsed": "0x554ec4",
      "logs": [
        {
          "address": "0xb6ddaf80fcadf0a1a2cf5be9f2b75cde825cd698",
          "topics": [
            "0x56c16e9b54e3b7e3dbae3759906560ff7ae5f346242223147b678b4092408d24",
            "0x0000000000000000000000000000000000000000000000000000000000000000",
            "0x000000000000000000000000250ab09c7dec1d2d6c09c080160bd7ff47689282"
          ],
          "data": "0x00000000000000000000000000000000000000000000000000000000000000a00000000000000000000000000000000000000000000000000000000000000000000000000000000000000000000000000000000000000000002386f26fc100000000000000000000000000000000000000000000000000000000000000000064000000000000000000000000000000000000000000000000000000000000005f00000000000000000000000000000000000000000000000000000000000000035553410000000000000000000000000000000000000000000000000000000000",
          "blockHash": "0x0dfad0d512b717cd4f395b3306fd917d8ce47766798d6b60eff41526a913b433",
          "blockNumber": "0x199ce41",
          "transactionHash": "0x10d423727bdc38def1c02f4f37e1b77db3dd172d95d342bf0c0e4e1fdbd62739",
          "transactionIndex": "0x15",
          "logIndex": "0xca",
          "removed": false
        }
      ],
      "logsBloom": "0x00800000000000000000000000000000000000000000080000000000000000000000000004000000000000000040000000000000000000000000000000000000000000000000000000000001000000000000000000000000000000000000000000000000020000000000000000000800000000000000000100000000000000000000040000000000000000000000000000000000000080000000000000000000000000000000000000000000000000000000000000000000000000000000000000000000000000000000000000080000000000000000000000000000000020000000000000000000000000000000000000000000000000000000000000000000",
      "type": "0x2",
      "transactionHash": "0x10d423727bdc38def1c02f4f37e1b77db3dd172d95d342bf0c0e4e1fdbd62739",
      "transactionIndex": "0x15",
      "blockHash": "0x0dfad0d512b717cd4f395b3306fd917d8ce47766798d6b60eff41526a913b433",
      "blockNumber": "0x199ce41",
      "gasUsed": "0x31ca8",
      "effectiveGasPrice": "0xc59f",
      "from": "0x250ab09c7dec1d2d6c09c080160bd7ff47689282",
      "to": "0xb6ddaf80fcadf0a1a2cf5be9f2b75cde825cd698",
      "contractAddress": null,
      "l1BaseFeeScalar": "0x44d",
      "l1BlobBaseFee": "0x1",
      "l1BlobBaseFeeScalar": "0xa118b",
      "l1Fee": "0x52abf6",
      "l1GasPrice": "0x2eede9",
      "l1GasUsed": "0x640"
    },
    {
      "status": "0x1",
      "cumulativeGasUsed": "0x560927",
      "logs": [
        {
          "address": "0xb6ddaf80fcadf0a1a2cf5be9f2b75cde825cd698",
          "topics": [
            "0x833f3d5749063e87e96be42f50537e02c64bfb60344ac426fa0f1f0444212dfb",
            "0x0000000000000000000000000000000000000000000000000000000000000000",
            "0x000000000000000000000000250ab09c7dec1d2d6c09c080160bd7ff47689282"
          ],
          "data": "0x00000000000000000000000000000000000000000000000000236ba984692000000000000000000000000000000000000000000000000000000e2b109b5d400000000000000000000000000000000000000000000000000000000000000000000000000000000000000000000000000000000000000000000000000000000078",
          "blockHash": "0x0dfad0d512b717cd4f395b3306fd917d8ce47766798d6b60eff41526a913b433",
          "blockNumber": "0x199ce41",
          "transactionHash": "0xbc373dac3d37dc6a8b9d76a04d6b5cf97fa97dd0ec73085634c53706e42b4218",
          "transactionIndex": "0x16",
          "logIndex": "0xcb",
          "removed": false
        }
      ],
      "logsBloom": "0x00800000000000000000000000000000000000000000080000000000000000000000000004000000200000000000000000000000000000000000000000000000000000000000000000000001000000000000000000000000000000000000000000000000020000000000000000000800000000000000000100000000000000000000040000000000000000000000000000000000000000002000000000000000000000000000000000000000000000000000000000000000000000000000000000000000000000000000000000000000000000000000000200000000000020000000000000000000000000000000000000000000000000000000000000000000",
      "type": "0x2",
      "transactionHash": "0xbc373dac3d37dc6a8b9d76a04d6b5cf97fa97dd0ec73085634c53706e42b4218",
      "transactionIndex": "0x16",
      "blockHash": "0x0dfad0d512b717cd4f395b3306fd917d8ce47766798d6b60eff41526a913b433",
      "blockNumber": "0x199ce41",
      "gasUsed": "0xba63",
      "effectiveGasPrice": "0xc59f",
      "from": "0x250ab09c7dec1d2d6c09c080160bd7ff47689282",
      "to": "0xb6ddaf80fcadf0a1a2cf5be9f2b75cde825cd698",
      "contractAddress": null,
      "l1BaseFeeScalar": "0x44d",
      "l1BlobBaseFee": "0x1",
      "l1BlobBaseFeeScalar": "0xa118b",
      "l1Fee": "0x52abf6",
      "l1GasPrice": "0x2eede9",
      "l1GasUsed": "0x640"
    }
  ],
  "libraries": [],
  "pending": [],
  "returns": {},
  "timestamp": 1749482340,
  "chain": 84532,
  "commit": "4ba2e33"
}