{
  "transactions": [
    {
      "hash": "0x096d2581805d4d87f05e5f9c9001c2c44230a2097bf242649a9853e93eaadc94",
      "transactionType": "CALL",
      "contractName": null,
      "contractAddress": "0x369327cb1f9e164a20215bb12024108bdbe1c8e1",
      "function": "createMarketOrder(string,uint8,uint8)",
      "arguments": [
        "USA",
        "0",
        "2"
      ],
      "transaction": {
        "from": "0xea7f4e6e64700d99053fab01be04453c6d3d71c6",
        "to": "0x369327cb1f9e164a20215bb12024108bdbe1c8e1",
        "gas": "0x695d2",
        "value": "0x9184e72a000",
        "input": "0x1e572a9c00000000000000000000000000000000000000000000000000000000000000600000000000000000000000000000000000000000000000000000000000000000000000000000000000000000000000000000000000000000000000000000000200000000000000000000000000000000000000000000000000000000000000035553410000000000000000000000000000000000000000000000000000000000",
        "nonce": "0x6f",
        "chainId": "0x14a34"
      },
      "additionalContracts": [],
      "isFixedGasLimit": false
    },
    {
      "hash": "0x7421d50be8c138a3456a60617efadaf9c50faf04405d36352fe3559cb0d663a7",
      "transactionType": "CALL",
      "contractName": null,
      "contractAddress": "0x369327cb1f9e164a20215bb12024108bdbe1c8e1",
      "function": "createMarketOrder(string,uint8,uint8)",
      "arguments": [
        "CHINA",
        "1",
        "3"
      ],
      "transaction": {
        "from": "0xea7f4e6e64700d99053fab01be04453c6d3d71c6",
        "to": "0x369327cb1f9e164a20215bb12024108bdbe1c8e1",
        "gas": "0x64eb4",
        "value": "0x48c27395000",
        "input": "0x1e572a9c00000000000000000000000000000000000000000000000000000000000000600000000000000000000000000000000000000000000000000000000000000001000000000000000000000000000000000000000000000000000000000000000300000000000000000000000000000000000000000000000000000000000000054348494e41000000000000000000000000000000000000000000000000000000",
        "nonce": "0x70",
        "chainId": "0x14a34"
      },
      "additionalContracts": [],
      "isFixedGasLimit": false
    },
    {
      "hash": "0xf0537e65b30c021656ea5a69963b963a3d39ba873c4a48082cee93ecb112f76d",
      "transactionType": "CALL",
      "contractName": null,
      "contractAddress": "0x9fead44f799927babc81598ff6134543a2240173",
      "function": "closePositionById(uint256,uint256,bool)",
      "arguments": [
        "1",
        "100000000000000000000",
        "false"
      ],
      "transaction": {
        "from": "0xea7f4e6e64700d99053fab01be04453c6d3d71c6",
        "to": "0x9fead44f799927babc81598ff6134543a2240173",
        "gas": "0x126b9",
        "value": "0x0",
        "input": "0xd5aec8d300000000000000000000000000000000000000000000000000000000000000010000000000000000000000000000000000000000000000056bc75e2d631000000000000000000000000000000000000000000000000000000000000000000000",
        "nonce": "0x71",
        "chainId": "0x14a34"
      },
      "additionalContracts": [],
      "isFixedGasLimit": false
    }
  ],
  "receipts": [
    {
      "status": "0x1",
      "cumulativeGasUsed": "0x706834",
      "logs": [
        {
          "address": "0x369327cb1f9e164a20215bb12024108bdbe1c8e1",
          "topics": [
            "0xcd88c6b8d8f1da2be5e93f755753b905ab53d14b4c4bf6403e4f21b3752d4851",
            "0x000000000000000000000000ea7f4e6e64700d99053fab01be04453c6d3d71c6",
            "0x0000000000000000000000000000000000000000000000000000000000000000"
          ],
          "data": "0x0000000000000000000000000000000000000000000000000000000000000040000000000000000000000000000000000000000000000000000009184e72a00000000000000000000000000000000000000000000000000000000000000000035553410000000000000000000000000000000000000000000000000000000000",
          "blockHash": "0x8b9ddbb9c9cc0b0598a2d06027825619ac30732e0aef14e55e0586f2eb5feb24",
          "blockNumber": "0x1a05d02",
          "transactionHash": "0x096d2581805d4d87f05e5f9c9001c2c44230a2097bf242649a9853e93eaadc94",
          "transactionIndex": "0x17",
          "logIndex": "0xc8",
          "removed": false
        },
        {
          "address": "0x9fead44f799927babc81598ff6134543a2240173",
          "topics": [
            "0xa8286b36d3855bc3a67ccd6e1390f7cf9288bdb45e5baa5d82b0fe0d60f504d5",
            "0x0000000000000000000000000000000000000000000000000000000000000001",
            "0x000000000000000000000000ea7f4e6e64700d99053fab01be04453c6d3d71c6"
          ],
          "data": "0x0000000000000000000000000000000000000000000000000000000000000080000000000000000000000000000000000000000000000000000000000000000000000000000000000000000000000000000000000000000000000911524ef400000000000000000000000000000000000000000000000000000000000001227a00000000000000000000000000000000000000000000000000000000000000035553410000000000000000000000000000000000000000000000000000000000",
          "blockHash": "0x8b9ddbb9c9cc0b0598a2d06027825619ac30732e0aef14e55e0586f2eb5feb24",
          "blockNumber": "0x1a05d02",
          "transactionHash": "0x096d2581805d4d87f05e5f9c9001c2c44230a2097bf242649a9853e93eaadc94",
          "transactionIndex": "0x17",
          "logIndex": "0xc9",
          "removed": false
        },
        {
          "address": "0x682aaed27cd2991f8864062eb9ab5bf58010341f",
          "topics": [
            "0x02a285fbc5822d4612433831975ce6b5fb51d4bbbc85f714ca4f372850c9b844",
            "0x000000000000000000000000ea7f4e6e64700d99053fab01be04453c6d3d71c6",
            "0x0000000000000000000000000000000000000000000000000000000000000001"
          ],
          "data": "0x0000000000000000000000000000000000000000000000000000000000000080000000000000000000000000000000000000000000000000000000000000000000000000000000000000000000000000000000000000000000000911524ef400000000000000000000000000000000000000000000000000000000000001227a00000000000000000000000000000000000000000000000000000000000000035553410000000000000000000000000000000000000000000000000000000000",
          "blockHash": "0x8b9ddbb9c9cc0b0598a2d06027825619ac30732e0aef14e55e0586f2eb5feb24",
          "blockNumber": "0x1a05d02",
          "transactionHash": "0x096d2581805d4d87f05e5f9c9001c2c44230a2097bf242649a9853e93eaadc94",
          "transactionIndex": "0x17",
          "logIndex": "0xca",
          "removed": false
        }
      ],
      "logsBloom": "0x04000000004800000000000800000000000008000000000000000000004000000000000000000410000000000000000000000000000200000000000000240000000000000000000000000000000000040000000200040000000000000000000000000000020000000000000400000800000000000000000200000000000000000000000200000004000000000000000000000000000000000000000000000000000000000000000000000000000000000000400000000000000000000000000040000000000000000000000000000000000000000000000000000000010060000000001000000000000000800000000000000000000000000000000000000000",
      "type": "0x2",
      "transactionHash": "0x096d2581805d4d87f05e5f9c9001c2c44230a2097bf242649a9853e93eaadc94",
      "transactionIndex": "0x17",
      "blockHash": "0x8b9ddbb9c9cc0b0598a2d06027825619ac30732e0aef14e55e0586f2eb5feb24",
      "blockNumber": "0x1a05d02",
      "gasUsed": "0x480b3",
      "effectiveGasPrice": "0x216",
      "from": "0xea7f4e6e64700d99053fab01be04453c6d3d71c6",
      "to": "0x369327cb1f9e164a20215bb12024108bdbe1c8e1",
      "contractAddress": null,
      "l1BaseFeeScalar": "0x44d",
      "l1BlobBaseFee": "0x1",
      "l1BlobBaseFeeScalar": "0xa118b",
      "l1Fee": "0x73",
      "l1GasPrice": "0x1c",
      "l1GasUsed": "0x640"
    },
    {
      "status": "0x1",
      "cumulativeGasUsed": "0x74b847",
      "logs": [
        {
          "address": "0x369327cb1f9e164a20215bb12024108bdbe1c8e1",
          "topics": [
            "0xcd88c6b8d8f1da2be5e93f755753b905ab53d14b4c4bf6403e4f21b3752d4851",
            "0x000000000000000000000000ea7f4e6e64700d99053fab01be04453c6d3d71c6",
            "0x0000000000000000000000000000000000000000000000000000000000000000"
          ],
          "data": "0x00000000000000000000000000000000000000000000000000000000000000400000000000000000000000000000000000000000000000000000048c2739500000000000000000000000000000000000000000000000000000000000000000054348494e41000000000000000000000000000000000000000000000000000000",
          "blockHash": "0x8b9ddbb9c9cc0b0598a2d06027825619ac30732e0aef14e55e0586f2eb5feb24",
          "blockNumber": "0x1a05d02",
          "transactionHash": "0x7421d50be8c138a3456a60617efadaf9c50faf04405d36352fe3559cb0d663a7",
          "transactionIndex": "0x18",
          "logIndex": "0xcb",
          "removed": false
        },
        {
          "address": "0x9fead44f799927babc81598ff6134543a2240173",
          "topics": [
            "0xa8286b36d3855bc3a67ccd6e1390f7cf9288bdb45e5baa5d82b0fe0d60f504d5",
            "0x0000000000000000000000000000000000000000000000000000000000000002",
            "0x000000000000000000000000ea7f4e6e64700d99053fab01be04453c6d3d71c6"
          ],
          "data": "0x0000000000000000000000000000000000000000000000000000000000000080000000000000000000000000000000000000000000000000000000000000000100000000000000000000000000000000000000000000000000000488a9277a0000000000000000000000000000000000000000000000000000000000000125ad00000000000000000000000000000000000000000000000000000000000000054348494e41000000000000000000000000000000000000000000000000000000",
          "blockHash": "0x8b9ddbb9c9cc0b0598a2d06027825619ac30732e0aef14e55e0586f2eb5feb24",
          "blockNumber": "0x1a05d02",
          "transactionHash": "0x7421d50be8c138a3456a60617efadaf9c50faf04405d36352fe3559cb0d663a7",
          "transactionIndex": "0x18",
          "logIndex": "0xcc",
          "removed": false
        },
        {
          "address": "0x682aaed27cd2991f8864062eb9ab5bf58010341f",
          "topics": [
            "0x02a285fbc5822d4612433831975ce6b5fb51d4bbbc85f714ca4f372850c9b844",
            "0x000000000000000000000000ea7f4e6e64700d99053fab01be04453c6d3d71c6",
            "0x0000000000000000000000000000000000000000000000000000000000000002"
          ],
          "data": "0x0000000000000000000000000000000000000000000000000000000000000080000000000000000000000000000000000000000000000000000000000000000100000000000000000000000000000000000000000000000000000488a9277a0000000000000000000000000000000000000000000000000000000000000125ad00000000000000000000000000000000000000000000000000000000000000054348494e41000000000000000000000000000000000000000000000000000000",
          "blockHash": "0x8b9ddbb9c9cc0b0598a2d06027825619ac30732e0aef14e55e0586f2eb5feb24",
          "blockNumber": "0x1a05d02",
          "transactionHash": "0x7421d50be8c138a3456a60617efadaf9c50faf04405d36352fe3559cb0d663a7",
          "transactionIndex": "0x18",
          "logIndex": "0xcd",
          "removed": false
        }
      ],
      "logsBloom": "0x04000000004800000000000800000000000008000000000000000000004000000000000000000410000000000000000000000000000200000000000000200000000000000000000000000000000000040000000200000000000000000000000000000000020000000000000400000800000000000000000200000000000000000000000200000004000000000000000000000000000000000000000000000000000000000000000000000100000000000000400000000000000000000000000040000000000000000000000000000000000000000000000000000000010020000000001000000000000000800000000000000000008000000000000000000000",
      "type": "0x2",
      "transactionHash": "0x7421d50be8c138a3456a60617efadaf9c50faf04405d36352fe3559cb0d663a7",
      "transactionIndex": "0x18",
      "blockHash": "0x8b9ddbb9c9cc0b0598a2d06027825619ac30732e0aef14e55e0586f2eb5feb24",
      "blockNumber": "0x1a05d02",
      "gasUsed": "0x45013",
      "effectiveGasPrice": "0x216",
      "from": "0xea7f4e6e64700d99053fab01be04453c6d3d71c6",
      "to": "0x369327cb1f9e164a20215bb12024108bdbe1c8e1",
      "contractAddress": null,
      "l1BaseFeeScalar": "0x44d",
      "l1BlobBaseFee": "0x1",
      "l1BlobBaseFeeScalar": "0xa118b",
      "l1Fee": "0x73",
      "l1GasPrice": "0x1c",
      "l1GasUsed": "0x640"
    },
    {
      "status": "0x1",
      "cumulativeGasUsed": "0x758da7",
      "logs": [
        {
          "address": "0x9fead44f799927babc81598ff6134543a2240173",
          "topics": [
            "0x21166b74c17c18febfe95ec77016ccc51b743a88262982de1fe63bc5c539eff1",
            "0x0000000000000000000000000000000000000000000000000000000000000001",
            "0x000000000000000000000000ea7f4e6e64700d99053fab01be04453c6d3d71c6"
          ],
          "data": "0x000000000000000000000000000000000000000000000000000000000000008000000000000000000000000000000000000000000000000000000911524ef40000000000000000000000000000000000000000000000000000000000000000000000000000000000000000000000000000000000000000056bc75e2d6310000000000000000000000000000000000000000000000000000000000000000000035553410000000000000000000000000000000000000000000000000000000000",
          "blockHash": "0x8b9ddbb9c9cc0b0598a2d06027825619ac30732e0aef14e55e0586f2eb5feb24",
          "blockNumber": "0x1a05d02",
          "transactionHash": "0xf0537e65b30c021656ea5a69963b963a3d39ba873c4a48082cee93ecb112f76d",
          "transactionIndex": "0x19",
          "logIndex": "0xce",
          "removed": false
        }
      ],
      "logsBloom": "0x00000000000800000000000000000000000008000000000000000000000000000000000000000410000000001000000000000000000000000000000000040000000000000000000000000000000000000000004000040000000000000000000000000000000000000000000000000000000000000000000000000000000000000000000000000000000000000000000000000000000000000000000000000000000000000000000000000000000000000000400000000000000000000000000000000000000000000000000000000000000001000000000000000000000040000000000000000000000000800000000000000000000000000000000000000000",
      "type": "0x2",
      "transactionHash": "0xf0537e65b30c021656ea5a69963b963a3d39ba873c4a48082cee93ecb112f76d",
      "transactionIndex": "0x19",
      "blockHash": "0x8b9ddbb9c9cc0b0598a2d06027825619ac30732e0aef14e55e0586f2eb5feb24",
      "blockNumber": "0x1a05d02",
      "gasUsed": "0xd560",
      "effectiveGasPrice": "0x216",
      "from": "0xea7f4e6e64700d99053fab01be04453c6d3d71c6",
      "to": "0x9fead44f799927babc81598ff6134543a2240173",
      "contractAddress": null,
      "l1BaseFeeScalar": "0x44d",
      "l1BlobBaseFee": "0x1",
      "l1BlobBaseFeeScalar": "0xa118b",
      "l1Fee": "0x73",
      "l1GasPrice": "0x1c",
      "l1GasUsed": "0x640"
    }
  ],
  "libraries": [],
  "pending": [],
  "returns": {},
  "timestamp": 1750341861,
  "chain": 84532,
  "commit": "db3a1f2"
}